:100000000C94DD000C9405010C9405010C94050181
:100010000C9405010C9405010C9405010C94050148
:100020000C9405010C9405010C9405010C94050138
:100030000C9405010C9405010C9405010C94050128
:100040000C94C4070C9405010C9434080C940E080D
:100050000C9405010C9405010C9405010C94050108
:100060000C9405010C940501556E6B6E6F776E2034
:100070006572726F720041204D49464152452050D1
:1000800049434320726573706F6E646564207769BD
:100090007468204E414B2E00546865204352435FE4
:1000A0004120646F6573206E6F74206D61746368A6
:1000B0002E00496E76616C696420617267756D65AA
:1000C0006E742E00496E7465726E616C206572727A
:1000D0006F7220696E2074686520636F64652E20DE
:1000E00053686F756C64206E6F7420686170706502
:1000F0006E2E004120627566666572206973206EFF
:100100006F742062696720656E6F7567682E005492
:10011000696D656F757420696E20636F6D6D756EA6
:1001200069636174696F6E2E00436F6C6C697369EB
:100130006F6E2064657465637465642E0045727229
:100140006F7220696E20636F6D6D756E6963617487
:10015000696F6E2E00537563636573732E00000024
:1001600000002300260029000000000024002700D2
:100170002A0000000000250028002B0004040404CD
:100180000404040402020202020203030303030341
:10019000010204081020408001020408102001021E
:1001A00004081020000000080002010000030407FA
:1001B0000000000000000000660811241FBECFEF01
:1001C000D8E0DEBFCDBF11E0A0E0B1E0EAECF6E19F
:1001D00002C005900D92A23AB107D9F722E0A2EA37
:1001E000B1E001C01D92AF35B207E1F710E0CDEDEF
:1001F000D0E004C02197FE010E94540BCC3DD107F2
:10020000C9F70E949D080C94630B0C9400008CBDF0
:100210009DBD0895833081F028F4813099F08230BB
:10022000A9F008958730A9F08830C9F08430B1F47E
:10023000809180008F7D03C0809180008F778093B4
:100240008000089584B58F7784BD089584B58F7D2F
:10025000FBCF8091B0008F778093B000089580919C
:10026000B0008F7DF9CF1F93CF93DF93282F30E01D
:10027000F901EC55FE4F8491F901E057FE4FD491FE
:10028000F901E458FE4FC491CC23A9F0162F811137
:100290000E940A01EC2FF0E0EE0FFF1FEE58FE4F18
:1002A000A591B4918FB7F894EC91111108C0D09535
:1002B000DE23DC938FBFDF91CF911F910895DE2B5A
:1002C000F8CFCF93DF9390E0FC01E057FE4F2491ED
:1002D00084589E4FFC0184918823D1F090E0880FD0
:1002E000991FFC01E859FE4FA591B491FC01EE580D
:1002F000FE4FC591D49161110EC09FB7F8948C91B7
:10030000E22FE0958E238C932881E223E8839FBF20
:10031000DF91CF9108958FB7F894EC91E22BEC9395
:100320008FBFF6CF3FB7F8948091AE019091AF01A7
:10033000A091B001B091B10126B5A89B05C02F3F97
:1003400019F00196A11DB11D3FBFBA2FA92F982FFB
:100350008827BC01CD01620F711D811D911D42E0F6
:10036000660F771F881F991F4A95D1F708958F92BE
:100370009F92AF92BF92CF92DF92EF92FF924B018A
:100380005C010E9492016B017C010E9492016C1938
:100390007D098E099F09683E734081059105A8F388
:1003A00021E0821A9108A108B10888EEC80E83E006
:1003B000D81EE11CF11C81149104A104B10429F799
:1003C000FF90EF90DF90CF90BF90AF909F908F9075
:1003D0000895AF92BF92CF92DF92EF92FF920F9368
:1003E0001F93CF93DF936C017B018B01040F151FCB
:1003F000EB015E01AE18BF08C017D10759F0699133
:10040000D601ED91FC910190F081E02DC601099596
:10041000892B79F7C501DF91CF911F910F91FF9043
:10042000EF90DF90CF90BF90AF900895FC01538D77
:10043000448D252F30E0842F90E0821B930B5417BE
:1004400010F0CF96089501970895FC01918D828D4B
:10045000981761F0A28DAE0FBF2FB11D5D968C91E4
:10046000928D9F5F9F73928F90E008958FEF9FEF23
:100470000895FC01918D828D981731F0828DE80FDF
:10048000F11D858D90E008958FEF9FEF0895FC0199
:10049000918D228D892F90E0805C9F4F821B910966
:1004A0008F739927089582EB91E00E94470221E023
:1004B000892B09F420E0822F089580E090E0892BB9
:1004C00029F00E94530281110C9400000895FC0150
:1004D000A48DA80FB92FB11DA35ABF4F2C91848DA5
:1004E00090E001968F739927848FA689B7892C9302
:1004F000A089B1898C91837080648C93938D848D55
:10050000981306C00288F389E02D80818F7D808357
:100510000895EF92FF920F931F93CF93DF93EC0117
:1005200081E0888F9B8D8C8D98131AC0E889F9899A
:10053000808185FF15C09FB7F894EE89FF8960839D
:10054000E889F98980818370806480839FBF81E01E
:1005500090E0DF91CF911F910F91FF90EF90089560
:10056000F62E0B8D10E00F5F1F4F0F731127E02E3B
:100570008C8D8E110CC00FB607FCFACFE889F98973
:10058000808185FFF5CFCE010E946702F1CFEB8D10
:10059000EC0FFD2FF11DE35AFF4FF0829FB7F89447
:1005A0000B8FEA89FB8980818062CFCFCF93DF9365
:1005B000EC01888D8823B9F0AA89BB89E889F9897B
:1005C0008C9185FD03C0808186FD0DC00FB607FCB0
:1005D000F7CF8C9185FFF2CF808185FFEDCFCE01E3
:1005E0000E946702E9CFDF91CF910895BC016E5F51
:1005F0007F4FDC01ED91FC910190F081E02D40E016
:10060000099591E0811190E0892F08958430F1F0EF
:1006100050F4813091F030F1823091F0833099F0D4
:1006200088E690E008958630B9F098F08730B9F008
:100630008F3FB1F786E790E008958DE391E008954C
:1006400089E291E008958FE091E0089583EF90E0D2
:10065000089584EC90E0089582EB90E0089588E995
:1006600090E0089585E591E0089508958EBD00001D
:100670000DB407FEFDCF8EB50895DF92EF92FF9285
:100680000F931F93CF93DF937C01062FD42E152F4A
:1006900080E590E00E94070160E0F70186850E94F6
:1006A000330182E10E943603CD2DD12F0C0F1D2F77
:1006B000111DC017D10721F089910E943603F9CF8F
:1006C00061E0F7018685DF91CF911F910F91FF9037
:1006D000EF90DF900C9433011F93CF93DF93EC01E5
:1006E000162F80E590E00E94070160E08E850E9451
:1006F0003301812F80680E94360380E00E94360318
:10070000182F61E08E850E943301812FDF91CF91F8
:100710001F9108950F931F93CF93DF93EC01062F42
:10072000142F80E590E00E94070160E08E850E9412
:100730003301802F0E943603812F0E94360361E02F
:100740008E85DF91CF911F910F910C943301CF9241
:10075000DF92EF92FF920F931F93CF93DF93EC0101
:100760006B01F42E890140E062E00E948A0344E0BC
:100770006AE0CE010E948A0340E864E1CE010E9453
:100780008A03A6016F2DCE010E943D0343E062E083
:10079000CE010E948A038FB7F894C090AA01D0902E
:1007A000AB01E090AC01F090AD018FBF89E5C80EC0
:1007B000D11CE11CF11C6AE0CE010E946C0382FF97
:1007C0001BC040E062E0CE010E948A0364E4CE01D7
:1007D0000E946C03F801808362E4CE010E946C03E6
:1007E000F801818380E0DF91CF911F910F91FF90FD
:1007F000EF90DF90CF9008952FB7F8948091AA01E1
:100800009091AB01A091AC01B091AD012FBF8C15BF
:100810009D05AE05BF0578F283E0E5CF2F923F92AC
:100820004F925F926F927F928F929F92AF92BF9200
:10083000CF92DF92EF92FF920F931F93CF93DF93AC
:1008400000D0CDB7DEB73C01162F942E290180E0F1
:10085000A114B10411F0F5018081382C329490EF8D
:100860003922380E40E062E0C3010E948A034FE75C
:1008700068E0C3010E948A0340E864E1C3010E946A
:100880008A03A201602FC3010E943D03432D6AE148
:10089000C3010E948A03412F62E0C3010E948A03C0
:1008A0001C3051F46AE1C3010E946C03482F406878
:1008B0006AE1C3010E948A038FB7F8942090AA01CD
:1008C0003090AB014090AC015090AD018FBFF4E28D
:1008D0002F0E311C411C511C68E0C3010E946C03A7
:1008E000982F992109F0BFC080FF16C083E00F90B8
:1008F0000F90DF91CF911F910F91FF90EF90DF90BC
:10090000CF90BF90AF909F908F907F906F905F90AF
:100910004F903F902F9008952FB7F8948091AA019F
:100920009091AB01A091AC01B091AD012FBF8215A8
:100930009305A405B50580F2D9CFE114F10409F4BB
:1009400067C0C114D10409F463C064E1C3010E940B
:100950006C03982EF6018081891508F47EC0908280
:100960009920C9F180E590E00E94070160E0F30161
:1009700086850E9433019A9482E90E94360388207A
:1009800099F00FEF10E001C0000F8A94EAF782E9B6
:100990000E943603902F9095F701208192238023A7
:1009A000982B9083882483948701080D111D891446
:1009B00040F482E90E943603F80181938F01839409
:1009C000F6CF80E00E943603F801808361E0F301F6
:1009D00086850E94330168E1C3010E946C03877021
:1009E000A114B10411F0F501808353FC38C0E11467
:1009F000F104B9F1C114D104A1F19F89992389F1BE
:100A0000F6014081413031F4843029F58FEF6FCF0A
:100A100080E0EBCF4230F8F081111DC042509E01C2
:100A20002F5F3F4FB701C3010E94A70381115FCF22
:100A3000F6019081E90EF11CF7013297208199812E
:100A4000291309C0F1E0EF1AF108F70120819A811A
:100A5000291709F44CCF87E04ACF84E048CF82E0E1
:100A600046CF80E044CF6CE0C3010E946C03582E57
:100A7000837109F462CF81E03ACF0F931F93CF9334
:100A8000DF938C01D62FC42F0E946C03C0954C2F8E
:100A900048236D2FC801DF91CF911F910F910C94C6
:100AA0008A036F927F928F92AF92BF92CF92DF9222
:100AB000EF92FF920F93CF93DF9300D000D01F925D
:100AC000CDB7DEB73C0182E08D8340E064E2C30134
:100AD0000E948A0340E066E2C3010E948A0346E264
:100AE00068E4C3010E948A0386E28B838D81823091
:100AF000C8F140E86CE1C3010E943D0587E08C83AA
:100B00001F92812CCE0104965C0101966C01049722
:100B10007C0101E09E012D5F3F4F40E36CE0C3018B
:100B20000E940E04982F0F90811119C08D81823080
:100B3000C9F48C81811116C081E00F900F900F9045
:100B40000F900F90DF91CF910F91FF90EF90DF907A
:100B5000CF90BF90AF908F907F906F90089581E07D
:100B6000923059F380E0E9CF2F923F924F925F92FB
:100B70006F927F928F929F92AF92BF92CF92DF92AD
:100B8000EF92FF920F931F93CF93DF93CDB7DEB712
:100B90002E970FB6F894DEBF0FBECDBF06E04135ED
:100BA00008F046C14E873B012C0140E86CE10E94F1
:100BB0003D0583E989832E85222329F081E0F30115
:100BC0009081953008F480E0992493941C869C854C
:100BD000990F990F990F1E85191B17FD10E032E030
:100BE000882319F098E89B8333E021E0912F9770D8
:100BF00009F420E0912F959595959595290FD1F0C1
:100C000094E0811193E0291708F4922F2C85E22FAC
:100C1000F0E03196E60DF71D232F4191A1E0B0E001
:100C2000AC0FBD1FA20FB11D4C932F5F422F431B72
:100C3000491798F38111185F10320CF484C080E7D3
:100C40008A838B819C8189279D8189279E81892721
:100C50008F839E01285F3F4F47E0BE016F5F7F4F4C
:100C6000C2010E94A703082F8111E2C01A8693E0F7
:100C70009B871D87FE0137961F0109E08A84482D56
:100C80004295407F480D6AE1C2010E948A031F928B
:100C9000CE010A965C01FE013B966F0171019E0137
:100CA0002F5F3F4F40E36CE0C2010E940E04082F0B
:100CB0000F90823009F065C06CE1C2010E946C03A4
:100CC00085FDB6C08F7109F480E2282F30E0412FF6
:100CD000110F550B421753070CF09EC0182FE22F2F
:100CE000E595E595E595EF5F922F977081E009F422
:100CF00080E0E80F81E090E08C0F9D1F8E0F911D2A
:100D0000FC01215031092770332781E090E002C0B7
:100D1000880F991F2A95E2F79C018081822B80839E
:100D20008BCF85E98983FE85FF2331F081E0F301D4
:100D30009081983008F04BCF80E049CF87E98983D4
:100D4000F6E0FC87F9CF912F97709A87812F8595D0
:100D5000859585958E5F282F2295207F290F2A83E0
:100D600001E0911101C000E0080F22242394312CEE
:100D70002C0E3D1E280E311CF9E0F81BFB871D8749
:100D80007DCF811155C010E29D8590320CF457CF74
:100D90008B81883809F042C083E093E02C85E22FF4
:100DA000F0E03196E60DF71D980FA1E0B0E0AC0F32
:100DB000BD1FA80FB11D2C9121938F5F8913F5CF13
:100DC0008B858C87833009F04DC08A8581114AC09C
:100DD0009E012D5F3F4F41E0B101C2010E94A70378
:100DE000082F811125C09B81F101818198133CC09E
:100DF0009C818281981338C0808182FF12C09394B5
:100E0000F2E09F1609F48DCF23E0921609F496CFF5
:100E100081E0981609F4CDCE05E00AC082E094E0A6
:100E2000BDCFF3018387892D880F980E939490820C
:100E3000802F2E960FB6F894DEBF0FBECDBFDF9188
:100E4000CF911F910F91FF90EF90DF90CF90BF90C7
:100E5000AF909F908F907F906F905F904F903F905A
:100E60002F90089501E0E4CF07E0E2CFFC0101906C
:100E70000020E9F73197AF01481B590BBC0182EB09
:100E800091E00C94E9010F931F93CF93DF938C01B2
:100E9000D0E0C0E0F801EC0FFD1F6491662341F043
:100EA00082EB91E00E948902892B11F02196F2CF0A
:100EB0008CE191E00E9436078C0F9D1FDF91CF914E
:100EC0001F910F9108958F92AF92BF92CF92DF92B0
:100ED000EF92FF920F93CF93DF93CDB7DEB7649776
:100EE0000FB6F894DEBF0FBECDBF062FE62EF12C55
:100EF000A701BC01CE0101960E945A0B21E030E00F
:100F00002C0F3D1F2E0D3F1D402FBE016F5F7F4FE9
:100F10008FE492E00E94A703811123C082E18C8BB1
:100F20001B8A0E5F1F92812CCE0143965C010196B5
:100F30006C0143977C019C0140E36CE08FE492E0FC
:100F40000E940E040F9081110CC08C898130D1F465
:100F50008B898430B9F481E099819A3009F480E07A
:100F6000819564960FB6F894DEBF0FBECDBFDF91BA
:100F7000CF910F91FF90EF90DF90CF90BF90AF9007
:100F80008F90089581E0EDCF1F920F920FB60F92D0
:100F900011242F933F938F939F93AF93BF9380918F
:100FA000AA019091AB01A091AC01B091AD0130913B
:100FB000A90123E0230F2D3758F50196A11DB11D7E
:100FC0002093A9018093AA019093AB01A093AC0157
:100FD000B093AD018091AE019091AF01A091B001AD
:100FE000B091B1010196A11DB11D8093AE01909306
:100FF000AF01A093B001B093B101BF91AF919F91A8
:101000008F913F912F910F900FBE0F901F901895C9
:1010100026E8230F0296A11DB11DD2CF1F920F9279
:101020000FB60F9211242F933F934F935F936F93BB
:101030007F938F939F93AF93BF93EF93FF9382EB35
:1010400091E00E946702FF91EF91BF91AF919F9154
:101050008F917F916F915F914F913F912F910F9061
:101060000FBE0F901F9018951F920F920FB60F9200
:1010700011242F938F939F93EF93FF93E091C201DD
:10108000F091C3018081E091C801F091C90182FD16
:101090001BC090818091CB018F5F8F732091CC0119
:1010A000821741F0E091CB01F0E0EE54FE4F958FB6
:1010B0008093CB01FF91EF919F918F912F910F9092
:1010C0000FBE0F901F9018958081F4CFE2EBF1E0F6
:1010D0001382128288EE93E0A0E0B0E084839583CF
:1010E000A683B78384E091E09183808385EC90E0D0
:1010F0009587848784EC90E09787868780EC90E0E2
:10110000918B808B81EC90E0938B828B82EC90E0D2
:10111000958B848B86EC90E0978B868B118E128E4C
:10112000138E148EEFE4F2E086E191E091838083E8
:101130008AE0868789E087870895CF93DF93CDB7CC
:10114000DEB7E7970FB6F894DEBF0FBECDBF789439
:1011500084B5826084BD84B5816084BD85B58260BC
:1011600085BD85B5816085BD80916E00816080936D
:101170006E001092810080918100826080938100D6
:1011800080918100816080938100809180008160E6
:10119000809380008091B10084608093B100809141
:1011A000B00081608093B00080917A008460809369
:1011B0007A0080917A00826080937A0080917A0030
:1011C000816080937A0080917A00806880937A00B1
:1011D0001092C100E091C201F091C30182E08083CE
:1011E000E091BE01F091BF011082E091C001F09149
:1011F000C1018FEC80831092CA01E091C601F09189
:10120000C70186E08083E091C401F091C50180812F
:1012100080618083E091C401F091C5018081886084
:101220008083E091C401F091C50180818068808352
:10123000E091C401F091C50180818F7D80831FB74B
:10124000F8948091A201811127C0E6E8F1E0849131
:10125000EAE9F1E09491E82FF0E0EE0FFF1FE85982
:10126000FE4FA591B491EC91E92321F461E08AE06D
:101270000E94330161E08AE00E9461018CB58061C7
:101280008CBD8CB580648CBD61E08DE00E946101F5
:1012900061E08BE00E9461018091A2018F5F8093E9
:1012A000A2011FBF61E080915D020E94610161E0C7
:1012B00080915D020E94330180915E028F3F09F4AC
:1012C000EEC060E00E94610120915E0230E0F90111
:1012D000EC55FE4F8491F901E057FE4F9490F901CF
:1012E000E458FE4F14911111CBC061E080915E0271
:1012F0000E94610160E080915E020E94330183E000
:1013000090E00197F1F761E080915E020E94330165
:1013100062E370E080E090E00E94B70140E064E2A8
:101320008FE492E00E948A0340E066E28FE492E05C
:101330000E948A0346E268E48FE492E00E948A03F6
:1013400040E864E58FE492E00E948A0349EA66E59A
:101350008FE492E00E948A0343E068E58FE492E024
:101360000E948A0348EE6AE58FE492E00E948A03B5
:1013700040E46AE28FE492E00E948A034DE362E275
:101380008FE492E00E948A0368E28FE492E00E9478
:101390006C03982F9370933039F0482F436068E2C4
:1013A0008FE492E00E948A038FEF8093A3018093E1
:1013B000A4018093A5018093A6018093A701809347
:1013C000A80182E291E00E9436078CE191E00E9440
:1013D00036073E012DE0620E711C2E0131E1430EF5
:1013E000511C20E0222E20E0322E8FE492E00E9459
:1013F0005105882309F4AEC08FE492E00E94F60202
:10140000882309F4A7C08DE391E00E94360710E01D
:1014100080915102181708F05BC0812F90E0FC0109
:10142000E15BFD4F4F018381803108F430C185E6D7
:1014300091E00E943607F401438150E070E060E0E3
:1014400019A2FE01B196DB01CA018F709927AA2764
:10145000BB2794E076956795579547959A95D1F770
:101460008A30A4F5805D82934115510561057105AF
:1014700051F7309719F0CF010E9436071F5FC8CF90
:1014800081110E940A01E12FF0E0EE0FFF1FE25AE6
:10149000FE4FA591B491EC919E2209F426CF4FE026
:1014A00062E08FE492E00E948A0313E062E370E05E
:1014B00080E090E00E94B70162E08FE492E00E9439
:1014C0006C0384FF2BCF115089F728CF895CCBCFD9
:1014D0008CE191E00E943607F2E1FFAB20E6298320
:1014E00084E08A83A3EAB1E0FE0133969E2E1F2F8B
:1014F0008D91819331E0A93AB307D1F7E091510280
:10150000E150FF0BE15BFD4FDE01199681918D9358
:10151000A615B705D9F71F92812CB12CA12CD12C7F
:10152000C12CF12CE12C0CE09E012F5F3F4F40E1DC
:101530006EE08FE492E00E940E04082F0F90882343
:10154000A9F087E491E00E943607802F0E940603ED
:101550000E9443072114310409F447CF0E9453022B
:10156000882309F43ACF0E94000037CF8FA9823137
:10157000C8F180E3898384E08A83292D312F42E0FA
:10158000BE016F5F7F4F8FE492E00E94A70381113D
:1015900029C081E08F93812CB12CA12CCE01C7965C
:1015A0006C01FE0131967F0104E09F0140E36CE095
:1015B0008FE492E00E940E040F90811113C085E524
:1015C00091E00E9436078701F80161918F0182EB5B
:1015D00091E00E94890240165106B1F78CE191E03A
:1015E0000E94360781E1E1E9F1E0DE019296019087
:1015F0000D928A95E1F780EA8BAB84E08CAB62E0D8
:10160000CE01C3960E946307182F811143C060E189
:10161000CE0182960E946307182F81113BC087E696
:1016200091E00E9436078CE191E00E94360780E548
:101630008BAB1CAA9E012B5C3F4F42E0BE016D5C50
:101640007F4F8FE492E00E94A703811113C01F9285
:10165000812CB12CA12CD12CC12CF12CE12C04E03B
:101660009E012D5C3F4F40E36CE08FE492E00E94CE
:101670000E040F9048E060E18FE492E00E943D0587
:1016800060ED77E080E090E00E94B70163CF8FE1EA
:1016900091E0CFCE82E891E00E943607812F0E9430
:1016A00006030E944307C3CFEE0FFF1F0590F4917E
:1016B000E02D0994FB01DC0102C001900D92415024
:0A16C0005040D8F70895F894FFCFCA
:1016CA00000000008902E9011602D602470225023B
:1016DA00390200000000B4055105F6020D0A002087
:1016EA003000526561647920746F207363616E20E3
:1016FA005246494420746167732E2E2E004361724C
:10170A0064205549443A0041757468206661696CE1
:10171A0065643A20004461746120696E20626C6FCE
:10172A00636B20343A2000446174612077726974D3
:10173A0074656E207375636365737366756C6C7913
:10174A0021005772697465206661696C65643A2084
:10175A00004C504E555F4C41425F323032365F4F3B
:02176A004B0032
:00000001FF
