:100000000C94B0000C94D8000C94D8000C94D80038
:100010000C94D8000C94D8000C94D8000C94D80000
:100020000C94D8000C94D8000C94D8000C94D800F0
:100030000C94D8000C94D8000C94D8000C94D800E0
:100040000C94CD060C94D8000C943D070C94170723
:100050000C94D8000C94D8000C94D8000C94D800C0
:100060000C94D8000C94D800000000002300260057
:1000700029005741524E494E473A20436F6D6D75E6
:100080006E69636174696F6E206661696C75726513
:100090002C20697320746865204D465243353232F6
:1000A0002070726F7065726C7920636F6E6E65631D
:1000B0007465643F00203D2028756E6B6E6F776E0F
:1000C0002900203D20636F756E74657266656974E2
:1000D000206368697000203D2076322E3000203D7C
:1000E0002076312E3000203D2076302E3000203D0D
:1000F0002028636C6F6E6529004669726D776172A6
:10010000652056657273696F6E3A20307800000082
:100110000000240027002A0000000000250028001D
:100120002B00040404040404040402020202020278
:1001300003030303030301020408102040800102AB
:10014000040810200102040810200000000800022A
:1001500001000003040700000000000000006F071A
:1001600011241FBECFEFD8E0DEBFCDBF11E0A0E06D
:10017000B1E0EEE8F4E102C005900D92A03FB107B6
:10018000D9F722E0A0EFB1E001C01D92AC3AB2076E
:10019000E1F710E0C0EBD0E004C02197FE010E941F
:1001A0003F0ACF3AD107C9F70E94A6070C94450A27
:1001B0000C9400008CBD9DBD0895833081F028F41F
:1001C000813099F08230A9F008958730A9F0883005
:1001D000C9F08430B1F4809180008F7D03C080919C
:1001E00080008F7780938000089584B58F7784BDD9
:1001F000089584B58F7DFBCF8091B0008F77809379
:10020000B00008958091B0008F7DF9CF1F93CF93F8
:10021000DF93282F30E0F901E65BFE4F8491F9016E
:10022000EA5CFE4FD491F901EE5DFE4FC491CC2300
:10023000A9F0162F81110E94DD00EC2FF0E0EE0FE7
:10024000FF1FE85EFE4FA591B4918FB7F894EC9133
:10025000111108C0D095DE23DC938FBFDF91CF91C1
:100260001F910895DE2BF8CFCF93DF9390E0FC0130
:10027000EA5CFE4F24918E5D9E4FFC0184918823A1
:10028000D1F090E0880F991FFC01E25FFE4FA5912D
:10029000B491FC01E85EFE4FC591D49161110EC08E
:1002A0009FB7F8948C91E22FE0958E238C93288150
:1002B000E223E8839FBFDF91CF9108958FB7F89431
:1002C000EC91E22BEC938FBFF6CF3FB7F89480917F
:1002D000F7019091F801A091F901B091FA0126B5CA
:1002E000A89B05C02F3F19F00196A11DB11D3FBF6E
:1002F000BA2FA92F982F8827BC01CD01620F711D3D
:10030000811D911D42E0660F771F881F991F4A9536
:10031000D1F708958F929F92AF92BF92CF92DF92C2
:10032000EF92FF924B015C010E9465016B017C0121
:100330000E9465016C197D098E099F09683E734012
:1003400081059105A8F321E0821A9108A108B1085E
:1003500088EEC80E83E0D81EE11CF11C81149104C4
:10036000A104B10429F7FF90EF90DF90CF90BF90E8
:10037000AF909F908F900895AF92BF92CF92DF92EF
:10038000EF92FF920F931F93CF93DF936C017B014A
:100390008B01040F151FEB015E01AE18BF08C017DB
:1003A000D10759F06991D601ED91FC910190F0814E
:1003B000E02DC6010995892B79F7C501DF91CF9111
:1003C0001F910F91FF90EF90DF90CF90BF90AF9073
:1003D0000895FC01538D448D252F30E0842F90E04B
:1003E000821B930B541710F0CF9608950197089530
:1003F000FC01918D828D981761F0A28DAE0FBF2FF9
:10040000B11D5D968C91928D9F5F9F73928F90E04E
:1004100008958FEF9FEF0895FC01918D828D9817BD
:1004200031F0828DE80FF11D858D90E008958FEFFA
:100430009FEF0895FC01918D228D892F90E0805CC3
:100440009F4F821B91098F73992708958FEF91E039
:100450000E941A0221E0892B09F420E0822F0895DE
:1004600080E090E0892B29F00E94260281110C94F3
:1004700000000895FC01A48DA80FB92FB11DA35A47
:10048000BF4F2C91848D90E001968F739927848FB4
:10049000A689B7892C93A089B1898C9183708064D7
:1004A0008C93938D848D981306C00288F389E02D78
:1004B00080818F7D80830895EF92FF920F931F9329
:1004C000CF93DF93EC0181E0888F9B8D8C8D981307
:1004D0001AC0E889F989808185FF15C09FB7F89413
:1004E000EE89FF896083E889F9898081837080645F
:1004F00080839FBF81E090E0DF91CF911F910F91AA
:10050000FF90EF900895F62E0B8D10E00F5F1F4FB8
:100510000F731127E02E8C8D8E110CC00FB607FCC7
:10052000FACFE889F989808185FFF5CFCE010E9455
:100530003A02F1CFEB8DEC0FFD2FF11DE35AFF4F87
:10054000F0829FB7F8940B8FEA89FB8980818062E3
:10055000CFCF0F931F93CF93DF938C01D0E0C0E0F8
:10056000F801EC0FFD1F6491662341F08FEF91E0DD
:100570000E945C02892B11F02196F2CFCE01DF910F
:10058000CF911F910F910895CF93DF93EC01888D48
:100590008823B9F0AA89BB89E889F9898C9185FDFE
:1005A00003C0808186FD0DC00FB607FCF7CF8C918C
:1005B00085FFF2CF808185FFEDCFCE010E943A0208
:1005C000E9CFDF91CF910895BC016E5F7F4FDC01D1
:1005D000ED91FC910190F081E02D40E0099591E0D2
:1005E000811190E0892F089508958EBD00000DB40B
:1005F00007FEFDCF8EB50895DF92EF92FF920F9325
:100600001F93CF93DF937C01062FD42E152F80E507
:1006100090E00E94DA0060E0F70186850E94060102
:1006200082E10E94F502CD2DD12F0C0F1D2F111D3F
:10063000C017D10721F089910E94F502F9CF61E03E
:10064000F7018685DF91CF911F910F91FF90EF9079
:10065000DF900C9406011F93CF93DF93EC01162FCC
:1006600080E590E00E94DA0060E08E850E9406013D
:10067000812F80680E94F50280E00E94F502182F09
:1006800061E08E850E940601812FDF91CF911F913D
:1006900008950F931F93CF93DF93EC01062F142F30
:1006A00080E590E00E94DA0060E08E850E940601FD
:1006B000802F0E94F502812F0E94F50261E08E8555
:1006C000DF91CF911F910F910C940601CF92DF9291
:1006D000EF92FF920F931F93CF93DF93EC016B0187
:1006E000F42E890140E062E00E94490344E06AE0A0
:1006F000CE010E94490340E864E1CE010E94490313
:10070000A6016F2DCE010E94FC0243E062E0CE0103
:100710000E9449038FB7F894C090FB01D090FC0170
:10072000E090FD01F090FE018FBF89E5C80ED11C5D
:10073000E11CF11C6AE0CE010E942B0382FF1BC06A
:1007400040E062E0CE010E94490364E4CE010E94D1
:100750002B03F801808362E4CE010E942B03F80191
:10076000818380E0DF91CF911F910F91FF90EF90F7
:10077000DF90CF9008952FB7F8948091FB0190916E
:10078000FC01A091FD01B091FE012FBF8C159D05CC
:10079000AE05BF0578F283E0E5CF0F931F93CF93AB
:1007A000DF938C01D62FC42F0E942B03C0954C2FB2
:1007B00048236D2FC801DF91CF911F910F910C94A9
:1007C0004903FC0101900020E9F73197AF01481B74
:1007D000590BBC018FEF91E00C94BC01CF93DF93D8
:1007E0000E94A902EC018CE191E00E94E1038C0FD0
:1007F0009D1FDF91CF910895CF93DF930E94E10376
:10080000EC018CE191E00E94E1038C0F9D1FDF91D0
:10081000CF9108954F925F926F927F928F929F92A5
:10082000AF92BF92CF92EF92FF920F931F93CF930D
:10083000DF93EC014B01642E590180E0E114F104D7
:1008400011F0F70180817C2C729490EF7922780E60
:1008500040E062E0CE010E9449034FE768E0CE012C
:100860000E94490340E864E1CE010E944903A401CB
:10087000662DCE010E94FC02472D6AE1CE010E9446
:1008800049034CE062E0CE010E9449036AE1CE01D7
:100890000E942B03482F40686AE1CE010E94490361
:1008A0008FB7F8944090FB015090FC016090FD01DF
:1008B0007090FE018FBFF4E24F0E511C611C711C41
:1008C00068E0CE010E942B03982F907309F080C03E
:1008D00080FF11C083E0DF91CF911F910F91FF90B6
:1008E000EF90CF90BF90AF909F908F907F906F9040
:1008F0005F904F9008952FB7F8948091FB019091ED
:10090000FC01A091FD01B091FE012FBF841595055A
:10091000A605B705A8F2DECFA114B10409F451C0B1
:100920000115110509F44DC064E1CE010E942B03AD
:10093000982EF8018081891508F448C0908299208A
:10094000B1F180E590E00E94DA0060E08E850E94BF
:1009500006019A9482E90E94F502CC2099F00FEFEB
:1009600010E001C0000FCA94EAF782E90E94F50284
:10097000902F9095F501208192238023982B9083CE
:10098000CC24C394AC0CB11CC91440F482E90E947D
:10099000F502F50181935F01C394F6CF80E00E94D8
:1009A000F502F501808361E08E850E94060168E111
:1009B000CE010E942B03E114F10419F08770F701B6
:1009C000808382E083FC87CF80E085CF84E083CF83
:1009D0006CE0CE010E942B03882E837109F49CCF1A
:1009E00081E079CFAF92BF92CF92EF92FF920F93B7
:1009F0001F93CF93DF9300D000D01F92CDB7DEB707
:100A00005C0182E08D8340E064E2C5010E944903FD
:100A100040E066E2C5010E94490346E268E4C50180
:100A20000E94490386E28B838D818230A0F140E8E9
:100A30006CE1C5010E94CD0387E08C83C12CCE01FF
:100A400004967C018E010B5F1F4F9E012F5F3F4F6D
:100A500041E0BE016D5F7F4FC5010E940A04982FDF
:100A6000811116C08D818230B1F48C81811113C047
:100A700081E00F900F900F900F900F90DF91CF912A
:100A80001F910F91FF90EF90CF90BF90AF9008957E
:100A900081E0923071F380E0ECCF2F923F924F9241
:100AA0005F926F927F928F929F92AF92BF92CF92FE
:100AB000DF92EF92FF920F931F93CF93DF93CDB707
:100AC000DEB72C970FB6F894DEBF0FBECDBF16E091
:100AD000413508F044C1342E5B014C0140E86CE123
:100AE0000E94CD0383E98983332029F081E0F50159
:100AF0009081953008F480E044244394512C952D46
:100B0000990F990F990FD32CD91AD7FCD12C32E019
:100B1000882319F098E89B8333E021E09D2D97709E
:100B200009F420E09D2D959595959595290FC9F08F
:100B300094E0811193E0291708F4922FE52DF0E05D
:100B40003196EA0DFB1D232F4191A1E0B0E0AC0FDF
:100B5000BD1FA20FB11D4C932F5F422F431B49179E
:100B600098F3882311F0F8E0DF0E8FE18D150CF07B
:100B700081C090E79A838B819C8189279D818927F9
:100B80009E8189278F839E01285F3F4F47E0BE01EA
:100B90006F5F7F4FC4010E946603182F8111DFC071
:100BA0001A86E3E0EB87DC86CE0107963C0129E05C
:100BB000222ECA844C2D4295407F4C0D6AE1C4011F
:100BC0000E944903FE013A967F018E01055F1F4F87
:100BD0009301422DBE016F5F7F4FC4010E940A0442
:100BE000182F823009F065C06CE1C4010E942B030C
:100BF00085FDB5C08F7109F480E2282F30E04D2DBE
:100C0000DD0C550B421753070CF09DC0D82EE82F72
:100C1000E595E595E595EF5F982F977081E009F4EC
:100C200080E0E80F81E090E08C0F9D1F8E0F911DFA
:100C3000FC01215031092770332781E090E002C088
:100C4000880F991F2A95E2F79C018081822B80836F
:100C50008CCF85E98983332031F081E0F5019081E3
:100C6000983008F04CCF80E04ACF87E9898336E09E
:100C7000532EF9CF9D2D97709A878D2D859585954B
:100C800085958E5F282F2295207F290F2A8321E0CA
:100C9000911101C020E0222E280E66246394712C4D
:100CA0006C0E7D1E680E711C99E0981B9B87DC867C
:100CB00080CF811154C080E2D82E9C8590320CF4F4
:100CC00058CF8B81883809F040C083E093E0E52D50
:100CD000F0E03196EA0DFB1D980FA1E0B0E0AC0FFB
:100CE000BD1FA80FB11D2C9121938F5F8913F5CFE4
:100CF0005B84E3E05E124DC08A8581114AC09E018B
:100D00002D5F3F4F41E0B301C4010E946603182FDD
:100D1000811125C09B81F301818198133CC09C8186
:100D20008281981338C0808182FF12C04394F2E020
:100D30004F1609F48ECF83E0481609F496CF91E060
:100D4000491609F4CFCE15E00AC082E094E0BFCF87
:100D5000F5018387842D880F480E43944082812FAC
:100D60002C960FB6F894DEBF0FBECDBFDF91CF91AA
:100D70001F910F91FF90EF90DF90CF90BF90AF90B9
:100D80009F908F907F906F905F904F903F902F90AB
:100D9000089511E0E4CF17E0E2CF1F920F920FB653
:100DA0000F9211242F933F938F939F93AF93BF93F1
:100DB0008091FB019091FC01A091FD01B091FE0199
:100DC0003091F60123E0230F2D3758F50196A11D30
:100DD000B11D2093F6018093FB019093FC01A09339
:100DE000FD01B093FE018091F7019091F801A0916F
:100DF000F901B091FA010196A11DB11D8093F7018F
:100E00009093F801A093F901B093FA01BF91AF91CB
:100E10009F918F913F912F910F900FBE0F901F9038
:100E2000189526E8230F0296A11DB11DD2CF1F925F
:100E30000F920FB60F9211242F933F934F935F930E
:100E40006F937F938F939F93AF93BF93EF93FF9392
:100E50008FEF91E00E943A02FF91EF91BF91AF9125
:100E60009F918F917F916F915F914F913F912F91C2
:100E70000F900FBE0F901F9018951F920F920FB6F4
:100E80000F9211242F938F939F93EF93FF93E091F1
:100E90000F02F09110028081E0911502F09116028C
:100EA00082FD1BC09081809118028F5F8F7320910B
:100EB0001902821741F0E0911802F0E0E150FE4F74
:100EC000958F80931802FF91EF919F918F912F91B1
:100ED0000F900FBE0F901F9018958081F4CFEFEF09
:100EE000F1E01382128288EE93E0A0E0B0E0848308
:100EF0009583A683B78384E091E09183808385EC1A
:100F000090E09587848784EC90E09787868780ECD3
:100F100090E0918B808B81EC90E0938B828B82ECC4
:100F200090E0958B848B86EC90E0978B868B118E6E
:100F3000128E138E148EECE9F2E086E191E091833B
:100F400080838AE0868789E087870895CF93DF933F
:100F5000CDB7DEB7A1970FB6F894DEBF0FBECDBFF9
:100F6000789484B5826084BD84B5816084BD85B584
:100F7000826085BD85B5816085BD80916E00816090
:100F800080936E0010928100809181008260809336
:100F90008100809181008160809381008091800038
:100FA0008160809380008091B10084608093B10063
:100FB0008091B00081608093B00080917A0084605D
:100FC00080937A0080917A00826080937A00809189
:100FD0007A00816080937A0080917A0080688093A3
:100FE0007A001092C100E0910F02F091100282E0AD
:100FF0008083E0910B02F0910C021082E0910D02CF
:10100000F0910E028FEC808310921702E091130290
:10101000F091140286E08083E0911102F0911202B7
:10102000808180618083E0911102F09112028081C1
:1010300088608083E0911102F091120280818068C3
:101040008083E0911102F091120280818F7D808374
:101050001FB7F8948091F001811127C0ECE2F1E014
:101060008491E0E4F1E09491E82FF0E0EE0FFF1FAF
:10107000E25FFE4FA591B491EC91E92321F461E088
:101080008AE00E94060161E08AE00E9434018CB58A
:1010900080618CBD8CB580648CBD61E08DE00E9468
:1010A000340161E08BE00E9434018091F0018F5F98
:1010B0008093F0011FBF61E08091AA020E94340179
:1010C00061E08091AA020E9406018091AB028F3FED
:1010D00009F402C160E00E9434012091AB0230E0CB
:1010E000F901E65BFE4F8491F901EA5CFE4F049141
:1010F000F901EE5DFE4F14911111DFC061E08091A6
:10110000AB020E94340160E08091AB020E940601B4
:1011100083E090E00197F1F761E08091AB020E94DB
:10112000060162E370E080E090E00E948A0140E006
:1011300064E28CE992E00E94490340E066E28CE9B7
:1011400092E00E94490346E268E48CE992E00E9442
:10115000490340E864E58CE992E00E94490349EACA
:1011600066E58CE992E00E94490343E068E58CE97A
:1011700092E00E94490348EE6AE58CE992E00E9401
:10118000490340E46AE28CE992E00E9449034DE39E
:1011900062E28CE992E00E94490368E28CE992E005
:1011A0000E942B03982F9370933039F0482F43609F
:1011B00068E28CE992E00E94490361E086E00E94C7
:1011C000340161E087E00E94340161E088E00E9420
:1011D00034018FE191E00E94FC0389E391E00E94D9
:1011E000FC0303E010E061E086E00E94060161E09C
:1011F00087E00E94060161E088E00E9406016CE23F
:1012000071E080E090E00E948A0160E086E00E9448
:10121000060160E087E00E94060160E088E00E942D
:1012200006016CE271E080E090E00E948A010150CA
:101230001109C9F68DE591E00E94FC036EE68CE988
:1012400092E00E942B03182F89EF90E00E94A902E0
:10125000C12ED12CF12CE12C19A2CE018196B7011F
:10126000A6014F7055276627772724E0F694E79468
:10127000D794C7942A95D1F74A300CF044C0405D0A
:10128000FC014293CF01C114D104E104F10439F708
:10129000EF2B11F00E94E10386EE90E0103909F483
:1012A0003CC098F582EC90E01231B9F18EEE90E0FE
:1012B000183899F185EB90E030C081110E94DD0073
:1012C000E12FF0E0EE0FFF1FE859FF4FA591B49119
:1012D000EC910E2309F412CF4FE062E08CE992E02A
:1012E0000E94490313E062E370E080E090E00E9416
:1012F0008A0162E08CE992E00E942B0384FF17CF01
:10130000115089F714CF495CBBCF8EED90E01139B5
:1013100021F086ED90E0123969F60E94EE0311503B
:101320001E3F20F082E790E00E94EE0361E088E03B
:101330000E9406018CE791E00E94FC0380E0A82E49
:1013400080E0B82E90E5D92E8CE992E00E94F2045C
:10135000882309F473C08CE992E00E94E402182FFC
:10136000882309F46BC084EA91E00E94FC03809119
:10137000F501811117C08BEB91E00E94FC03809175
:101380009F028093F1018091A0028093F2018091ED
:10139000A1028093F3018091A2028093F40181E085
:1013A0008093F501AFE9B2E0E1EFF1E09D91819129
:1013B000981310E081E0E53FF807C1F711114AC02A
:1013C00080ED91E00E94FC0360E088E00E9406014D
:1013D00061E086E00E94060160ED77E080E090E049
:1013E0000E948A0160E086E00E94060161E088E0D8
:1013F0000E940601D9821A829E012D5F3F4F42E072
:10140000BE016F5F7F4F8CE992E00E9466038111FD
:101410000FC0C12CF12CE12C10E000E030E020E006
:1014200044E0BE016F5F7F4F8CE992E00E940A04A6
:1014300048E060E18CE992E00E94CD03A114B10480
:1014400009F482CF0E942602882309F47DCF0E94EE
:1014500000007ACF8FED91E00E94FC0360E088E00D
:101460000E94060161E087E00E94060168E873E1DE
:1014700080E090E00E948A0160E087E0B5CFEE0F47
:0E148000FF1F0590F491E02D0994F894FFCF22
:10148E00000000005C02BC01E901C4021A02F8016E
:10149E000C02000000004D05F204E4020D0A000AE1
:1014AE002D2D2D20444941474E4F5354494320532F
:1014BE0054415254202D2D2D0054657374696E675E
:1014CE00204C4544732E2E2E204C6F6F6B20617472
:1014DE0020796F757220626F6172642100436865B6
:1014EE00636B696E67204D46524335323220436F2F
:1014FE006E6E656374696F6E2E2E2E005379737443
:10150E00656D2052656164793A205075742063616F
:10151E00726420746F206C6561726E204D4153545D
:10152E0045522E000A2D2D2D2043617264204465F4
:10153E00746563746564202D2D2D004D4153544503
:10154E00522043415244204C4541524E45442E00B8
:10155E004143434553532044454E494544210041A0
:10156E004343455353204752414E544544210000B6
:00000001FF
